{
  "address": "0x62dab06b5BcD3B87BC5547012DD84ba2c4274356",
  "abi": [
    {
      "inputs": [
        {
          "internalType": "address",
          "name": "_eggs",
          "type": "address"
        },
        {
          "internalType": "address",
          "name": "__governanceAddress",
          "type": "address"
        },
        {
          "internalType": "address",
          "name": "vrfCoordinatorV2",
          "type": "address"
        },
        {
          "internalType": "bytes32",
          "name": "gasLane",
          "type": "bytes32"
        },
        {
          "internalType": "uint32",
          "name": "callbackGasLimit",
          "type": "uint32"
        },
        {
          "internalType": "uint64",
          "name": "subscriptionId",
          "type": "uint64"
        }
      ],
      "stateMutability": "nonpayable",
      "type": "constructor"
    },
    {
      "inputs": [],
      "name": "AlreadyExists",
      "type": "error"
    },
    {
      "inputs": [],
      "name": "AntNotYours",
      "type": "error"
    },
    {
      "inputs": [],
      "name": "CantAffordEggs",
      "type": "error"
    },
    {
      "inputs": [],
      "name": "CantEnter",
      "type": "error"
    },
    {
      "inputs": [],
      "name": "NoEggs",
      "type": "error"
    },
    {
      "inputs": [],
      "name": "NoZeroAddress",
      "type": "error"
    },
    {
      "inputs": [
        {
          "internalType": "address",
          "name": "have",
          "type": "address"
        },
        {
          "internalType": "address",
          "name": "want",
          "type": "address"
        }
      ],
      "name": "OnlyCoordinatorCanFulfill",
      "type": "error"
    },
    {
      "inputs": [],
      "name": "OnlyGovernance",
      "type": "error"
    },
    {
      "inputs": [],
      "name": "TxnFailed",
      "type": "error"
    },
    {
      "inputs": [],
      "name": "WrongEtherSent",
      "type": "error"
    },
    {
      "inputs": [],
      "name": "cantLayEggsRightNow",
      "type": "error"
    },
    {
      "anonymous": false,
      "inputs": [],
      "name": "AntCreated",
      "type": "event"
    },
    {
      "anonymous": false,
      "inputs": [
        {
          "indexed": false,
          "internalType": "string",
          "name": "",
          "type": "string"
        }
      ],
      "name": "AntDied",
      "type": "event"
    },
    {
      "anonymous": false,
      "inputs": [],
      "name": "AntSold",
      "type": "event"
    },
    {
      "anonymous": false,
      "inputs": [
        {
          "indexed": true,
          "internalType": "address",
          "name": "owner",
          "type": "address"
        },
        {
          "indexed": true,
          "internalType": "address",
          "name": "approved",
          "type": "address"
        },
        {
          "indexed": true,
          "internalType": "uint256",
          "name": "tokenId",
          "type": "uint256"
        }
      ],
      "name": "Approval",
      "type": "event"
    },
    {
      "anonymous": false,
      "inputs": [
        {
          "indexed": true,
          "internalType": "address",
          "name": "owner",
          "type": "address"
        },
        {
          "indexed": true,
          "internalType": "address",
          "name": "operator",
          "type": "address"
        },
        {
          "indexed": false,
          "internalType": "bool",
          "name": "approved",
          "type": "bool"
        }
      ],
      "name": "ApprovalForAll",
      "type": "event"
    },
    {
      "anonymous": false,
      "inputs": [
        {
          "indexed": true,
          "internalType": "address",
          "name": "",
          "type": "address"
        },
        {
          "indexed": true,
          "internalType": "uint256",
          "name": "",
          "type": "uint256"
        }
      ],
      "name": "EggsBought",
      "type": "event"
    },
    {
      "anonymous": false,
      "inputs": [
        {
          "indexed": true,
          "internalType": "uint256",
          "name": "id",
          "type": "uint256"
        }
      ],
      "name": "GotRequestId",
      "type": "event"
    },
    {
      "anonymous": false,
      "inputs": [
        {
          "indexed": true,
          "internalType": "uint256",
          "name": "",
          "type": "uint256"
        }
      ],
      "name": "MintedRandomEggs",
      "type": "event"
    },
    {
      "anonymous": false,
      "inputs": [
        {
          "indexed": true,
          "internalType": "address",
          "name": "from",
          "type": "address"
        },
        {
          "indexed": true,
          "internalType": "address",
          "name": "to",
          "type": "address"
        },
        {
          "indexed": true,
          "internalType": "uint256",
          "name": "tokenId",
          "type": "uint256"
        }
      ],
      "name": "Transfer",
      "type": "event"
    },
    {
      "inputs": [
        {
          "internalType": "uint256",
          "name": "",
          "type": "uint256"
        }
      ],
      "name": "ants",
      "outputs": [
        {
          "internalType": "address",
          "name": "owner",
          "type": "address"
        },
        {
          "internalType": "uint256",
          "name": "id",
          "type": "uint256"
        },
        {
          "internalType": "bool",
          "name": "canLayEggs",
          "type": "bool"
        },
        {
          "internalType": "uint256",
          "name": "timeOfLastLaidEgg",
          "type": "uint256"
        }
      ],
      "stateMutability": "view",
      "type": "function"
    },
    {
      "inputs": [],
      "name": "antsCreated",
      "outputs": [
        {
          "internalType": "uint256",
          "name": "",
          "type": "uint256"
        }
      ],
      "stateMutability": "view",
      "type": "function"
    },
    {
      "inputs": [
        {
          "internalType": "address",
          "name": "to",
          "type": "address"
        },
        {
          "internalType": "uint256",
          "name": "tokenId",
          "type": "uint256"
        }
      ],
      "name": "approve",
      "outputs": [],
      "stateMutability": "nonpayable",
      "type": "function"
    },
    {
      "inputs": [
        {
          "internalType": "address",
          "name": "owner",
          "type": "address"
        }
      ],
      "name": "balanceOf",
      "outputs": [
        {
          "internalType": "uint256",
          "name": "",
          "type": "uint256"
        }
      ],
      "stateMutability": "view",
      "type": "function"
    },
    {
      "inputs": [
        {
          "internalType": "uint256",
          "name": "_amount",
          "type": "uint256"
        }
      ],
      "name": "buyEggs",
      "outputs": [],
      "stateMutability": "payable",
      "type": "function"
    },
    {
      "inputs": [
        {
          "internalType": "uint256",
          "name": "_antId",
          "type": "uint256"
        }
      ],
      "name": "canAntLayEggs",
      "outputs": [
        {
          "internalType": "bool",
          "name": "",
          "type": "bool"
        }
      ],
      "stateMutability": "view",
      "type": "function"
    },
    {
      "inputs": [
        {
          "internalType": "uint256",
          "name": "_price",
          "type": "uint256"
        }
      ],
      "name": "changePriceOfEgg",
      "outputs": [],
      "stateMutability": "nonpayable",
      "type": "function"
    },
    {
      "inputs": [],
      "name": "createAnt",
      "outputs": [],
      "stateMutability": "nonpayable",
      "type": "function"
    },
    {
      "inputs": [],
      "name": "eggPrice",
      "outputs": [
        {
          "internalType": "uint256",
          "name": "",
          "type": "uint256"
        }
      ],
      "stateMutability": "view",
      "type": "function"
    },
    {
      "inputs": [],
      "name": "eggs",
      "outputs": [
        {
          "internalType": "contract IEgg",
          "name": "",
          "type": "address"
        }
      ],
      "stateMutability": "view",
      "type": "function"
    },
    {
      "inputs": [],
      "name": "getAntsCreated",
      "outputs": [
        {
          "internalType": "uint256",
          "name": "",
          "type": "uint256"
        }
      ],
      "stateMutability": "view",
      "type": "function"
    },
    {
      "inputs": [
        {
          "internalType": "uint256",
          "name": "tokenId",
          "type": "uint256"
        }
      ],
      "name": "getApproved",
      "outputs": [
        {
          "internalType": "address",
          "name": "",
          "type": "address"
        }
      ],
      "stateMutability": "view",
      "type": "function"
    },
    {
      "inputs": [],
      "name": "getContractBalance",
      "outputs": [
        {
          "internalType": "uint256",
          "name": "",
          "type": "uint256"
        }
      ],
      "stateMutability": "view",
      "type": "function"
    },
    {
      "inputs": [
        {
          "internalType": "address",
          "name": "owner",
          "type": "address"
        },
        {
          "internalType": "address",
          "name": "operator",
          "type": "address"
        }
      ],
      "name": "isApprovedForAll",
      "outputs": [
        {
          "internalType": "bool",
          "name": "",
          "type": "bool"
        }
      ],
      "stateMutability": "view",
      "type": "function"
    },
    {
      "inputs": [
        {
          "internalType": "uint256",
          "name": "_antId",
          "type": "uint256"
        }
      ],
      "name": "layEggs",
      "outputs": [],
      "stateMutability": "nonpayable",
      "type": "function"
    },
    {
      "inputs": [],
      "name": "locked",
      "outputs": [
        {
          "internalType": "bool",
          "name": "",
          "type": "bool"
        }
      ],
      "stateMutability": "view",
      "type": "function"
    },
    {
      "inputs": [],
      "name": "name",
      "outputs": [
        {
          "internalType": "string",
          "name": "",
          "type": "string"
        }
      ],
      "stateMutability": "view",
      "type": "function"
    },
    {
      "inputs": [],
      "name": "notLocked",
      "outputs": [
        {
          "internalType": "bool",
          "name": "",
          "type": "bool"
        }
      ],
      "stateMutability": "view",
      "type": "function"
    },
    {
      "inputs": [
        {
          "internalType": "uint256",
          "name": "tokenId",
          "type": "uint256"
        }
      ],
      "name": "ownerOf",
      "outputs": [
        {
          "internalType": "address",
          "name": "",
          "type": "address"
        }
      ],
      "stateMutability": "view",
      "type": "function"
    },
    {
      "inputs": [
        {
          "internalType": "uint256",
          "name": "requestId",
          "type": "uint256"
        },
        {
          "internalType": "uint256[]",
          "name": "randomWords",
          "type": "uint256[]"
        }
      ],
      "name": "rawFulfillRandomWords",
      "outputs": [],
      "stateMutability": "nonpayable",
      "type": "function"
    },
    {
      "inputs": [
        {
          "internalType": "address",
          "name": "from",
          "type": "address"
        },
        {
          "internalType": "address",
          "name": "to",
          "type": "address"
        },
        {
          "internalType": "uint256",
          "name": "tokenId",
          "type": "uint256"
        }
      ],
      "name": "safeTransferFrom",
      "outputs": [],
      "stateMutability": "nonpayable",
      "type": "function"
    },
    {
      "inputs": [
        {
          "internalType": "address",
          "name": "from",
          "type": "address"
        },
        {
          "internalType": "address",
          "name": "to",
          "type": "address"
        },
        {
          "internalType": "uint256",
          "name": "tokenId",
          "type": "uint256"
        },
        {
          "internalType": "bytes",
          "name": "_data",
          "type": "bytes"
        }
      ],
      "name": "safeTransferFrom",
      "outputs": [],
      "stateMutability": "nonpayable",
      "type": "function"
    },
    {
      "inputs": [
        {
          "internalType": "uint256",
          "name": "_antId",
          "type": "uint256"
        }
      ],
      "name": "sellAnt",
      "outputs": [],
      "stateMutability": "nonpayable",
      "type": "function"
    },
    {
      "inputs": [
        {
          "internalType": "address",
          "name": "operator",
          "type": "address"
        },
        {
          "internalType": "bool",
          "name": "approved",
          "type": "bool"
        }
      ],
      "name": "setApprovalForAll",
      "outputs": [],
      "stateMutability": "nonpayable",
      "type": "function"
    },
    {
      "inputs": [
        {
          "internalType": "bytes4",
          "name": "interfaceId",
          "type": "bytes4"
        }
      ],
      "name": "supportsInterface",
      "outputs": [
        {
          "internalType": "bool",
          "name": "",
          "type": "bool"
        }
      ],
      "stateMutability": "view",
      "type": "function"
    },
    {
      "inputs": [],
      "name": "symbol",
      "outputs": [
        {
          "internalType": "string",
          "name": "",
          "type": "string"
        }
      ],
      "stateMutability": "view",
      "type": "function"
    },
    {
      "inputs": [
        {
          "internalType": "uint256",
          "name": "tokenId",
          "type": "uint256"
        }
      ],
      "name": "tokenURI",
      "outputs": [
        {
          "internalType": "string",
          "name": "",
          "type": "string"
        }
      ],
      "stateMutability": "view",
      "type": "function"
    },
    {
      "inputs": [
        {
          "internalType": "address",
          "name": "from",
          "type": "address"
        },
        {
          "internalType": "address",
          "name": "to",
          "type": "address"
        },
        {
          "internalType": "uint256",
          "name": "tokenId",
          "type": "uint256"
        }
      ],
      "name": "transferFrom",
      "outputs": [],
      "stateMutability": "nonpayable",
      "type": "function"
    },
    {
      "inputs": [],
      "name": "viewGovernanceAddress",
      "outputs": [
        {
          "internalType": "address",
          "name": "",
          "type": "address"
        }
      ],
      "stateMutability": "view",
      "type": "function"
    }
  ],
  "transactionHash": "0x47bf68e42ae23a2c2b992a0fb7f9298941ac8d81c16b78fee2cfcc1d7d427767",
  "args": [
    "0x705D4bD211cE00bd62f47EC24F40Ba36f837F549",
    "0xf82506e3A7E6E981A0175C808026fF25e133fAE4",
    "0x2ca8e0c643bde4c2e08ab1fa0da3401adad7734d",
    "0x79d3d8832d904592c0bf9818b621522c988bb8b0c05cdc3b15aea1b6e8db0c15",
    "500000000",
    "6326"
  ],
  "solcInputHash": "243bcb2753543eccc08154904bcab240",
  "bytecode": "0x6101606040526006805461ffff19169055662386f26fc1000060085560006009553480156200002d57600080fd5b5060405162002603380380620026038339810160408190526200005091620001dd565b604080518082018252600b81526a43727970746f20416e747360a81b602080830191825283518085019094526004845263414e545360e01b908401528151879391620000a091600091906200011a565b508051620000b69060019060208401906200011a565b505050606090811b6001600160601b031990811660805296811b871660a05294851b861660c09081529390941b90941660e0908152610120919091529290921b6001600160e01b03191661014052901b6001600160c01b03191661010052620002ac565b82805462000128906200026f565b90600052602060002090601f0160209004810192826200014c576000855562000197565b82601f106200016757805160ff191683800117855562000197565b8280016001018555821562000197579182015b82811115620001975782518255916020019190600101906200017a565b50620001a5929150620001a9565b5090565b5b80821115620001a55760008155600101620001aa565b80516001600160a01b0381168114620001d857600080fd5b919050565b60008060008060008060c08789031215620001f757600080fd5b6200020287620001c0565b95506200021260208801620001c0565b94506200022260408801620001c0565b935060608701519250608087015163ffffffff811681146200024357600080fd5b60a08801519092506001600160401b03811681146200026157600080fd5b809150509295509295509295565b600181811c908216806200028457607f821691505b60208210811415620002a657634e487b7160e01b600052602260045260246000fd5b50919050565b60805160601c60a05160601c60c05160601c60e05160601c6101005160c01c610120516101405160e01c6122c06200034360003960006112c10152600061125f0152600061128e015260006112f20152600081816104e70152610f610152600081816105770152818161097a01528181610b0101528181610c910152611b040152600081816108b401526108f601526122c06000f3fe6080604052600436106101c25760003560e01c80636352211e116100f7578063b88d4fde11610095578063dcc8c2d911610064578063dcc8c2d914610545578063e33f76cf14610565578063e985e9c514610599578063fac6b699146105e257600080fd5b8063b88d4fde146104b8578063c461f8b5146104d8578063c87b56dd1461050b578063cf3090121461052b57600080fd5b8063751928a1116100d1578063751928a11461044d57806395d89b411461046d578063a22cb46514610482578063a993efbc146104a257600080fd5b80636352211e146103fa5780636f9fb98a1461041a57806370a082311461042d57600080fd5b806323b872dd116101645780633d8712291161013e5780633d8712291461039257806342842e0e146103a75780634fd53596146103c757806361dcb054146103da57600080fd5b806323b872dd146103395780632e61a7bf14610359578063305e35521461036e57600080fd5b8063095ea7b3116101a0578063095ea7b314610256578063109dcfe61461027857806317e356a1146102fa5780631fe543e31461031957600080fd5b806301ffc9a7146101c757806306fdde03146101fc578063081812fc1461021e575b600080fd5b3480156101d357600080fd5b506101e76101e2366004611e7d565b610615565b60405190151581526020015b60405180910390f35b34801561020857600080fd5b50610211610667565b6040516101f3919061203a565b34801561022a57600080fd5b5061023e610239366004611eb7565b6106f9565b6040516001600160a01b0390911681526020016101f3565b34801561026257600080fd5b50610276610271366004611e53565b610793565b005b34801561028457600080fd5b506102ca610293366004611eb7565b60076020526000908152604090208054600182015460028301546003909301546001600160a01b0390921692909160ff9091169084565b604080516001600160a01b03909516855260208501939093529015159183019190915260608201526080016101f3565b34801561030657600080fd5b506006546101e790610100900460ff1681565b34801561032557600080fd5b50610276610334366004611ee9565b6108a9565b34801561034557600080fd5b50610276610354366004611d1b565b610931565b34801561036557600080fd5b50610276610962565b34801561037a57600080fd5b5061038460085481565b6040519081526020016101f3565b34801561039e57600080fd5b50600954610384565b3480156103b357600080fd5b506102766103c2366004611d1b565b610b89565b6102766103d5366004611eb7565b610ba4565b3480156103e657600080fd5b506102766103f5366004611eb7565b610d3f565b34801561040657600080fd5b5061023e610415366004611eb7565b610e58565b34801561042657600080fd5b5047610384565b34801561043957600080fd5b50610384610448366004611ccd565b610ecf565b34801561045957600080fd5b50610276610468366004611eb7565b610f56565b34801561047957600080fd5b50610211610fa4565b34801561048e57600080fd5b5061027661049d366004611e17565b610fb3565b3480156104ae57600080fd5b5061038460095481565b3480156104c457600080fd5b506102766104d3366004611d57565b611078565b3480156104e457600080fd5b507f000000000000000000000000000000000000000000000000000000000000000061023e565b34801561051757600080fd5b50610211610526366004611eb7565b6110b0565b34801561053757600080fd5b506006546101e79060ff1681565b34801561055157600080fd5b50610276610560366004611eb7565b611198565b34801561057157600080fd5b5061023e7f000000000000000000000000000000000000000000000000000000000000000081565b3480156105a557600080fd5b506101e76105b4366004611ce8565b6001600160a01b03918216600090815260056020908152604080832093909416825291909152205460ff1690565b3480156105ee57600080fd5b506101e76105fd366004611eb7565b60009081526007602052604090206002015460ff1690565b60006001600160e01b031982166380ac58cd60e01b148061064657506001600160e01b03198216635b5e139f60e01b145b8061066157506301ffc9a760e01b6001600160e01b03198316145b92915050565b606060008054610676906121af565b80601f01602080910402602001604051908101604052809291908181526020018280546106a2906121af565b80156106ef5780601f106106c4576101008083540402835291602001916106ef565b820191906000526020600020905b8154815290600101906020018083116106d257829003601f168201915b5050505050905090565b6000818152600260205260408120546001600160a01b03166107775760405162461bcd60e51b815260206004820152602c60248201527f4552433732313a20617070726f76656420717565727920666f72206e6f6e657860448201526b34b9ba32b73a103a37b5b2b760a11b60648201526084015b60405180910390fd5b506000908152600460205260409020546001600160a01b031690565b600061079e82610e58565b9050806001600160a01b0316836001600160a01b0316141561080c5760405162461bcd60e51b815260206004820152602160248201527f4552433732313a20617070726f76616c20746f2063757272656e74206f776e656044820152603960f91b606482015260840161076e565b336001600160a01b0382161480610828575061082881336105b4565b61089a5760405162461bcd60e51b815260206004820152603860248201527f4552433732313a20617070726f76652063616c6c6572206973206e6f74206f7760448201527f6e6572206e6f7220617070726f76656420666f7220616c6c0000000000000000606482015260840161076e565b6108a483836113a9565b505050565b336001600160a01b037f000000000000000000000000000000000000000000000000000000000000000016146109235760405163073e64fd60e21b81523360048201526001600160a01b037f000000000000000000000000000000000000000000000000000000000000000016602482015260440161076e565b61092d8282611417565b5050565b61093b3382611459565b6109575760405162461bcd60e51b815260040161076e9061209f565b6108a4838383611550565b6040516370a0823160e01b81523360048201526001907f00000000000000000000000000000000000000000000000000000000000000006001600160a01b0316906370a082319060240160206040518083038186803b1580156109c457600080fd5b505afa1580156109d8573d6000803e3d6000fd5b505050506040513d601f19601f820116820180604052508101906109fc9190611ed0565b1015610a1b57604051636c308a2f60e01b815260040160405180910390fd5b6000600960008154610a2c906121ea565b9182905550600081815260076020526040902060010154909150811415610a665760405163119b4fd360e11b815260040160405180910390fd5b610a7033826116f0565b6040805160808101825233808252602080830185815260018486018181526000606087018181528982526007909552879020955186546001600160a01b0319166001600160a01b039182161787559251868301555160028601805460ff191691151591909117905591516003909401939093559251632770a7eb60e21b8152600481019190915260248101929092527f00000000000000000000000000000000000000000000000000000000000000001690639dc29fac90604401600060405180830381600087803b158015610b4557600080fd5b505af1158015610b59573d6000803e3d6000fd5b50506040517fa38da27c8afea1e833812265c5f9c3f1def6eaf2e7d9b42c1b4d9d8ea69b0b75925060009150a150565b6108a483838360405180602001604052806000815250611078565b610bac611832565b6006805460ff191660011790556008546000610bc88234612139565b905082811015610beb5760405163c8cb54fd60e01b815260040160405180910390fd5b600082610bf8858461216c565b610c02919061214d565b90508015610c7557604051600090339083908381818185875af1925050503d8060008114610c4c576040519150601f19603f3d011682016040523d82523d6000602084013e610c51565b606091505b5050905080610c7357604051636473f19160e11b815260040160405180910390fd5b505b6040516340c10f1960e01b8152336004820152602481018590527f00000000000000000000000000000000000000000000000000000000000000006001600160a01b0316906340c10f1990604401600060405180830381600087803b158015610cdd57600080fd5b505af1158015610cf1573d6000803e3d6000fd5b50506040518492503391507fecedcda9002dd5028204a70dddaa2155459b6dff3c3e20543450a189e736dc4990600090a350506006805460ff610100820416151560ff199091161790555050565b600081815260076020908152604091829020825160808101845281546001600160a01b0316808252600183015493820193909352600282015460ff161515938101939093526003015460608301523314610dac5760405163ee0c5b0560e01b815260040160405180910390fd5b6040516000903390660e35fa931a0000908381818185875af1925050503d8060008114610df5576040519150601f19603f3d011682016040523d82523d6000602084013e610dfa565b606091505b5050905080610e1c57604051636473f19160e11b815260040160405180910390fd5b600083815260076020526040812080546001600160a01b03191681556001810182905560028101805460ff19169055600301556108a483611858565b6000818152600260205260408120546001600160a01b0316806106615760405162461bcd60e51b815260206004820152602960248201527f4552433732313a206f776e657220717565727920666f72206e6f6e657869737460448201526832b73a103a37b5b2b760b91b606482015260840161076e565b60006001600160a01b038216610f3a5760405162461bcd60e51b815260206004820152602a60248201527f4552433732313a2062616c616e636520717565727920666f7220746865207a65604482015269726f206164647265737360b01b606482015260840161076e565b506001600160a01b031660009081526003602052604090205490565b336001600160a01b037f00000000000000000000000000000000000000000000000000000000000000001614610f9f576040516354348f0360e01b815260040160405180910390fd5b600855565b606060018054610676906121af565b6001600160a01b03821633141561100c5760405162461bcd60e51b815260206004820152601960248201527f4552433732313a20617070726f766520746f2063616c6c657200000000000000604482015260640161076e565b3360008181526005602090815260408083206001600160a01b03871680855290835292819020805460ff191686151590811790915590519081529192917f17307eab39ab6107e8899845ad3d59bd9653f200f220920489ca2b5937696c31910160405180910390a35050565b6110823383611459565b61109e5760405162461bcd60e51b815260040161076e9061209f565b6110aa848484846118f3565b50505050565b6000818152600260205260409020546060906001600160a01b031661112f5760405162461bcd60e51b815260206004820152602f60248201527f4552433732314d657461646174613a2055524920717565727920666f72206e6f60448201526e3732bc34b9ba32b73a103a37b5b2b760891b606482015260840161076e565b600061114660408051602081019091526000815290565b905060008151116111665760405180602001604052806000815250611191565b8061117084611926565b604051602001611181929190611fce565b6040516020818303038152906040525b9392505050565b600081815260076020908152604091829020825160808101845281546001600160a01b03168152600182015492810192909252600281015460ff161580159383018490526003909101546060830152909161120357504281606001516102586112019190612121565b115b1561122157604051636a182c7760e01b815260040160405180910390fd5b80516001600160a01b0316331461124b5760405163ee0c5b0560e01b815260040160405180910390fd5b600a8290556040516305d3b1d360e41b81527f0000000000000000000000000000000000000000000000000000000000000000600482015267ffffffffffffffff7f00000000000000000000000000000000000000000000000000000000000000001660248201526003604482015263ffffffff7f0000000000000000000000000000000000000000000000000000000000000000166064820152600160848201526000907f00000000000000000000000000000000000000000000000000000000000000006001600160a01b031690635d3b1d309060a401602060405180830381600087803b15801561133e57600080fd5b505af1158015611352573d6000803e3d6000fd5b505050506040513d601f19601f820116820180604052508101906113769190611ed0565b60405190915081907f75bc6521e0a381a34635625cc81323f229645c7112f14564029c92bfbe628b4b90600090a2505050565b600081815260046020526040902080546001600160a01b0319166001600160a01b03841690811790915581906113de82610e58565b6001600160a01b03167f8c5be1e5ebec7d5bd14f71427d1e84f3dd0314c0f7b2291e5b200ac8c7c3b92560405160405180910390a45050565b600060148260008151811061142e5761142e612245565b60200260200101516114409190612205565b61144b906001612121565b90506108a4600a5482611a24565b6000818152600260205260408120546001600160a01b03166114d25760405162461bcd60e51b815260206004820152602c60248201527f4552433732313a206f70657261746f7220717565727920666f72206e6f6e657860448201526b34b9ba32b73a103a37b5b2b760a11b606482015260840161076e565b60006114dd83610e58565b9050806001600160a01b0316846001600160a01b031614806115185750836001600160a01b031661150d846106f9565b6001600160a01b0316145b8061154857506001600160a01b0380821660009081526005602090815260408083209388168352929052205460ff165b949350505050565b826001600160a01b031661156382610e58565b6001600160a01b0316146115cb5760405162461bcd60e51b815260206004820152602960248201527f4552433732313a207472616e73666572206f6620746f6b656e2074686174206960448201526839903737ba1037bbb760b91b606482015260840161076e565b6001600160a01b03821661162d5760405162461bcd60e51b8152602060048201526024808201527f4552433732313a207472616e7366657220746f20746865207a65726f206164646044820152637265737360e01b606482015260840161076e565b6116386000826113a9565b6001600160a01b038316600090815260036020526040812080546001929061166190849061216c565b90915550506001600160a01b038216600090815260036020526040812080546001929061168f908490612121565b909155505060008181526002602052604080822080546001600160a01b0319166001600160a01b0386811691821790925591518493918716917fddf252ad1be2c89b69c2b068fc378daa952ba7f163c4a11628f55a4df523b3ef91a4505050565b6001600160a01b0382166117465760405162461bcd60e51b815260206004820181905260248201527f4552433732313a206d696e7420746f20746865207a65726f2061646472657373604482015260640161076e565b6000818152600260205260409020546001600160a01b0316156117ab5760405162461bcd60e51b815260206004820152601c60248201527f4552433732313a20746f6b656e20616c7265616479206d696e74656400000000604482015260640161076e565b6001600160a01b03821660009081526003602052604081208054600192906117d4908490612121565b909155505060008181526002602052604080822080546001600160a01b0319166001600160a01b03861690811790915590518392907fddf252ad1be2c89b69c2b068fc378daa952ba7f163c4a11628f55a4df523b3ef908290a45050565b60065460ff161561185657604051637c943de560e11b815260040160405180910390fd5b565b600061186382610e58565b90506118706000836113a9565b6001600160a01b038116600090815260036020526040812080546001929061189990849061216c565b909155505060008281526002602052604080822080546001600160a01b0319169055518391906001600160a01b038416907fddf252ad1be2c89b69c2b068fc378daa952ba7f163c4a11628f55a4df523b3ef908390a45050565b6118fe848484611550565b61190a84848484611ba4565b6110aa5760405162461bcd60e51b815260040161076e9061204d565b60608161194a5750506040805180820190915260018152600360fc1b602082015290565b8160005b8115611974578061195e816121ea565b915061196d9050600a83612139565b915061194e565b60008167ffffffffffffffff81111561198f5761198f61225b565b6040519080825280601f01601f1916602001820160405280156119b9576020820181803683370190505b5090505b8415611548576119ce60018361216c565b91506119db600a86612205565b6119e6906030612121565b60f81b8183815181106119fb576119fb612245565b60200101906001600160f81b031916908160001a905350611a1d600a86612139565b94506119bd565b60008281526007602052604090206008821415611ad457600083815260076020526040812080546001600160a01b03191681556001810182905560028101805460ff1916905560030155611a7783611858565b7fa7107d3965e4e4842dc1fd2b9997f17d78304c31915ffebdf5065b57ad72455a604051611acb90602080825260129082015271596f757220616e742068617320646965642160701b604082015260600190565b60405180910390a15b816008146108a45780546040516340c10f1960e01b81526001600160a01b039182166004820152602481018490527f0000000000000000000000000000000000000000000000000000000000000000909116906340c10f1990604401600060405180830381600087803b158015611b4a57600080fd5b505af1158015611b5e573d6000803e3d6000fd5b5050426003840155505060028101805460ff1916905560405182907f711e488f78fcccd2ce429ba37b5229ded868d4339cdd7e66fc00235ad8cca7a990600090a2505050565b60006001600160a01b0384163b15611ca657604051630a85bd0160e11b81526001600160a01b0385169063150b7a0290611be8903390899088908890600401611ffd565b602060405180830381600087803b158015611c0257600080fd5b505af1925050508015611c32575060408051601f3d908101601f19168201909252611c2f91810190611e9a565b60015b611c8c573d808015611c60576040519150601f19603f3d011682016040523d82523d6000602084013e611c65565b606091505b508051611c845760405162461bcd60e51b815260040161076e9061204d565b805181602001fd5b6001600160e01b031916630a85bd0160e11b149050611548565b506001949350505050565b80356001600160a01b0381168114611cc857600080fd5b919050565b600060208284031215611cdf57600080fd5b61119182611cb1565b60008060408385031215611cfb57600080fd5b611d0483611cb1565b9150611d1260208401611cb1565b90509250929050565b600080600060608486031215611d3057600080fd5b611d3984611cb1565b9250611d4760208501611cb1565b9150604084013590509250925092565b60008060008060808587031215611d6d57600080fd5b611d7685611cb1565b93506020611d85818701611cb1565b935060408601359250606086013567ffffffffffffffff80821115611da957600080fd5b818801915088601f830112611dbd57600080fd5b813581811115611dcf57611dcf61225b565b611de1601f8201601f191685016120f0565b91508082528984828501011115611df757600080fd5b808484018584013760008482840101525080935050505092959194509250565b60008060408385031215611e2a57600080fd5b611e3383611cb1565b915060208301358015158114611e4857600080fd5b809150509250929050565b60008060408385031215611e6657600080fd5b611e6f83611cb1565b946020939093013593505050565b600060208284031215611e8f57600080fd5b813561119181612271565b600060208284031215611eac57600080fd5b815161119181612271565b600060208284031215611ec957600080fd5b5035919050565b600060208284031215611ee257600080fd5b5051919050565b60008060408385031215611efc57600080fd5b8235915060208084013567ffffffffffffffff80821115611f1c57600080fd5b818601915086601f830112611f3057600080fd5b813581811115611f4257611f4261225b565b8060051b9150611f538483016120f0565b8181528481019084860184860187018b1015611f6e57600080fd5b600095505b83861015611f91578035835260019590950194918601918601611f73565b508096505050505050509250929050565b60008151808452611fba816020860160208601612183565b601f01601f19169290920160200192915050565b60008351611fe0818460208801612183565b835190830190611ff4818360208801612183565b01949350505050565b6001600160a01b038581168252841660208201526040810183905260806060820181905260009061203090830184611fa2565b9695505050505050565b6020815260006111916020830184611fa2565b60208082526032908201527f4552433732313a207472616e7366657220746f206e6f6e20455243373231526560408201527131b2b4bb32b91034b6b83632b6b2b73a32b960711b606082015260800190565b60208082526031908201527f4552433732313a207472616e736665722063616c6c6572206973206e6f74206f6040820152701ddb995c881b9bdc88185c1c1c9bdd9959607a1b606082015260800190565b604051601f8201601f1916810167ffffffffffffffff811182821017156121195761211961225b565b604052919050565b6000821982111561213457612134612219565b500190565b6000826121485761214861222f565b500490565b600081600019048311821515161561216757612167612219565b500290565b60008282101561217e5761217e612219565b500390565b60005b8381101561219e578181015183820152602001612186565b838111156110aa5750506000910152565b600181811c908216806121c357607f821691505b602082108114156121e457634e487b7160e01b600052602260045260246000fd5b50919050565b60006000198214156121fe576121fe612219565b5060010190565b6000826122145761221461222f565b500690565b634e487b7160e01b600052601160045260246000fd5b634e487b7160e01b600052601260045260246000fd5b634e487b7160e01b600052603260045260246000fd5b634e487b7160e01b600052604160045260246000fd5b6001600160e01b03198116811461228757600080fd5b5056fea2646970667358221220a17a5fa55d2264680dd7be4229eb3c7c0bddf990d9742be1f2bea6fc6473d4bb64736f6c63430008070033",
  "devdoc": {
    "kind": "dev",
    "methods": {
      "approve(address,uint256)": {
        "details": "See {IERC721-approve}."
      },
      "balanceOf(address)": {
        "details": "See {IERC721-balanceOf}."
      },
      "getApproved(uint256)": {
        "details": "See {IERC721-getApproved}."
      },
      "isApprovedForAll(address,address)": {
        "details": "See {IERC721-isApprovedForAll}."
      },
      "name()": {
        "details": "See {IERC721Metadata-name}."
      },
      "ownerOf(uint256)": {
        "details": "See {IERC721-ownerOf}."
      },
      "safeTransferFrom(address,address,uint256)": {
        "details": "See {IERC721-safeTransferFrom}."
      },
      "safeTransferFrom(address,address,uint256,bytes)": {
        "details": "See {IERC721-safeTransferFrom}."
      },
      "setApprovalForAll(address,bool)": {
        "details": "See {IERC721-setApprovalForAll}."
      },
      "supportsInterface(bytes4)": {
        "details": "See {IERC165-supportsInterface}."
      },
      "symbol()": {
        "details": "See {IERC721Metadata-symbol}."
      },
      "tokenURI(uint256)": {
        "details": "See {IERC721Metadata-tokenURI}."
      },
      "transferFrom(address,address,uint256)": {
        "details": "See {IERC721-transferFrom}."
      }
    },
    "version": 1
  },
  "userdoc": {
    "kind": "user",
    "methods": {},
    "version": 1
  },
  "storageLayout": {
    "storage": [
      {
        "astId": 2637,
        "contract": "contracts/CryptoAnts.sol:CryptoAnts",
        "label": "_name",
        "offset": 0,
        "slot": "0",
        "type": "t_string_storage"
      },
      {
        "astId": 2639,
        "contract": "contracts/CryptoAnts.sol:CryptoAnts",
        "label": "_symbol",
        "offset": 0,
        "slot": "1",
        "type": "t_string_storage"
      },
      {
        "astId": 2643,
        "contract": "contracts/CryptoAnts.sol:CryptoAnts",
        "label": "_owners",
        "offset": 0,
        "slot": "2",
        "type": "t_mapping(t_uint256,t_address)"
      },
      {
        "astId": 2647,
        "contract": "contracts/CryptoAnts.sol:CryptoAnts",
        "label": "_balances",
        "offset": 0,
        "slot": "3",
        "type": "t_mapping(t_address,t_uint256)"
      },
      {
        "astId": 2651,
        "contract": "contracts/CryptoAnts.sol:CryptoAnts",
        "label": "_tokenApprovals",
        "offset": 0,
        "slot": "4",
        "type": "t_mapping(t_uint256,t_address)"
      },
      {
        "astId": 2657,
        "contract": "contracts/CryptoAnts.sol:CryptoAnts",
        "label": "_operatorApprovals",
        "offset": 0,
        "slot": "5",
        "type": "t_mapping(t_address,t_mapping(t_address,t_bool))"
      },
      {
        "astId": 5233,
        "contract": "contracts/CryptoAnts.sol:CryptoAnts",
        "label": "locked",
        "offset": 0,
        "slot": "6",
        "type": "t_bool"
      },
      {
        "astId": 5237,
        "contract": "contracts/CryptoAnts.sol:CryptoAnts",
        "label": "notLocked",
        "offset": 1,
        "slot": "6",
        "type": "t_bool"
      },
      {
        "astId": 5242,
        "contract": "contracts/CryptoAnts.sol:CryptoAnts",
        "label": "ants",
        "offset": 0,
        "slot": "7",
        "type": "t_mapping(t_uint256,t_struct(Ant)5230_storage)"
      },
      {
        "astId": 5248,
        "contract": "contracts/CryptoAnts.sol:CryptoAnts",
        "label": "eggPrice",
        "offset": 0,
        "slot": "8",
        "type": "t_uint256"
      },
      {
        "astId": 5251,
        "contract": "contracts/CryptoAnts.sol:CryptoAnts",
        "label": "antsCreated",
        "offset": 0,
        "slot": "9",
        "type": "t_uint256"
      },
      {
        "astId": 5253,
        "contract": "contracts/CryptoAnts.sol:CryptoAnts",
        "label": "_currentAnt",
        "offset": 0,
        "slot": "10",
        "type": "t_uint256"
      }
    ],
    "types": {
      "t_address": {
        "encoding": "inplace",
        "label": "address",
        "numberOfBytes": "20"
      },
      "t_bool": {
        "encoding": "inplace",
        "label": "bool",
        "numberOfBytes": "1"
      },
      "t_mapping(t_address,t_bool)": {
        "encoding": "mapping",
        "key": "t_address",
        "label": "mapping(address => bool)",
        "numberOfBytes": "32",
        "value": "t_bool"
      },
      "t_mapping(t_address,t_mapping(t_address,t_bool))": {
        "encoding": "mapping",
        "key": "t_address",
        "label": "mapping(address => mapping(address => bool))",
        "numberOfBytes": "32",
        "value": "t_mapping(t_address,t_bool)"
      },
      "t_mapping(t_address,t_uint256)": {
        "encoding": "mapping",
        "key": "t_address",
        "label": "mapping(address => uint256)",
        "numberOfBytes": "32",
        "value": "t_uint256"
      },
      "t_mapping(t_uint256,t_address)": {
        "encoding": "mapping",
        "key": "t_uint256",
        "label": "mapping(uint256 => address)",
        "numberOfBytes": "32",
        "value": "t_address"
      },
      "t_mapping(t_uint256,t_struct(Ant)5230_storage)": {
        "encoding": "mapping",
        "key": "t_uint256",
        "label": "mapping(uint256 => struct CryptoAnts.Ant)",
        "numberOfBytes": "32",
        "value": "t_struct(Ant)5230_storage"
      },
      "t_string_storage": {
        "encoding": "bytes",
        "label": "string",
        "numberOfBytes": "32"
      },
      "t_struct(Ant)5230_storage": {
        "encoding": "inplace",
        "label": "struct CryptoAnts.Ant",
        "members": [
          {
            "astId": 5223,
            "contract": "contracts/CryptoAnts.sol:CryptoAnts",
            "label": "owner",
            "offset": 0,
            "slot": "0",
            "type": "t_address"
          },
          {
            "astId": 5225,
            "contract": "contracts/CryptoAnts.sol:CryptoAnts",
            "label": "id",
            "offset": 0,
            "slot": "1",
            "type": "t_uint256"
          },
          {
            "astId": 5227,
            "contract": "contracts/CryptoAnts.sol:CryptoAnts",
            "label": "canLayEggs",
            "offset": 0,
            "slot": "2",
            "type": "t_bool"
          },
          {
            "astId": 5229,
            "contract": "contracts/CryptoAnts.sol:CryptoAnts",
            "label": "timeOfLastLaidEgg",
            "offset": 0,
            "slot": "3",
            "type": "t_uint256"
          }
        ],
        "numberOfBytes": "128"
      },
      "t_uint256": {
        "encoding": "inplace",
        "label": "uint256",
        "numberOfBytes": "32"
      }
    }
  }
}