{
  "address": "0xf82506e3A7E6E981A0175C808026fF25e133fAE4",
  "abi": [
    {
      "inputs": [
        {
          "internalType": "contract CryptoAnts",
          "name": "_cryptoAnts",
          "type": "address"
        }
      ],
      "stateMutability": "nonpayable",
      "type": "constructor"
    },
    {
      "inputs": [],
      "name": "AlreadyVoted",
      "type": "error"
    },
    {
      "inputs": [],
      "name": "CantVoteForYourOwnProposal",
      "type": "error"
    },
    {
      "inputs": [],
      "name": "NoAnts",
      "type": "error"
    },
    {
      "inputs": [],
      "name": "NotEnoughAntsToMakeProposal",
      "type": "error"
    },
    {
      "inputs": [],
      "name": "ProposalEndTimePassed",
      "type": "error"
    },
    {
      "inputs": [],
      "name": "ProposalExecuted",
      "type": "error"
    },
    {
      "inputs": [],
      "name": "ProposalOngoing",
      "type": "error"
    },
    {
      "anonymous": false,
      "inputs": [
        {
          "indexed": true,
          "internalType": "uint256",
          "name": "",
          "type": "uint256"
        }
      ],
      "name": "EggPriceChanged",
      "type": "event"
    },
    {
      "anonymous": false,
      "inputs": [
        {
          "indexed": true,
          "internalType": "uint256",
          "name": "",
          "type": "uint256"
        },
        {
          "indexed": false,
          "internalType": "string",
          "name": "",
          "type": "string"
        }
      ],
      "name": "ProposalStarted",
      "type": "event"
    },
    {
      "inputs": [],
      "name": "cryptoAnts",
      "outputs": [
        {
          "internalType": "contract CryptoAnts",
          "name": "",
          "type": "address"
        }
      ],
      "stateMutability": "view",
      "type": "function"
    },
    {
      "inputs": [],
      "name": "currentProposalVotesForNo",
      "outputs": [
        {
          "internalType": "uint256",
          "name": "",
          "type": "uint256"
        }
      ],
      "stateMutability": "view",
      "type": "function"
    },
    {
      "inputs": [],
      "name": "currentProposalVotesForYes",
      "outputs": [
        {
          "internalType": "uint256",
          "name": "",
          "type": "uint256"
        }
      ],
      "stateMutability": "view",
      "type": "function"
    },
    {
      "inputs": [],
      "name": "executeProposal",
      "outputs": [],
      "stateMutability": "nonpayable",
      "type": "function"
    },
    {
      "inputs": [],
      "name": "getProposalCount",
      "outputs": [
        {
          "internalType": "uint256",
          "name": "",
          "type": "uint256"
        }
      ],
      "stateMutability": "view",
      "type": "function"
    },
    {
      "inputs": [
        {
          "internalType": "address",
          "name": "_voter",
          "type": "address"
        }
      ],
      "name": "getVoteWeight",
      "outputs": [
        {
          "internalType": "uint256",
          "name": "",
          "type": "uint256"
        }
      ],
      "stateMutability": "view",
      "type": "function"
    },
    {
      "inputs": [],
      "name": "isProposalOngoing",
      "outputs": [
        {
          "internalType": "bool",
          "name": "",
          "type": "bool"
        }
      ],
      "stateMutability": "view",
      "type": "function"
    },
    {
      "inputs": [],
      "name": "isProposalSupported",
      "outputs": [
        {
          "internalType": "bool",
          "name": "",
          "type": "bool"
        }
      ],
      "stateMutability": "view",
      "type": "function"
    },
    {
      "inputs": [],
      "name": "proposalThreshold",
      "outputs": [
        {
          "internalType": "uint256",
          "name": "",
          "type": "uint256"
        }
      ],
      "stateMutability": "pure",
      "type": "function"
    },
    {
      "inputs": [
        {
          "internalType": "uint256",
          "name": "",
          "type": "uint256"
        }
      ],
      "name": "proposals",
      "outputs": [
        {
          "internalType": "uint256",
          "name": "id",
          "type": "uint256"
        },
        {
          "internalType": "address",
          "name": "proposer",
          "type": "address"
        },
        {
          "internalType": "uint256",
          "name": "qurum",
          "type": "uint256"
        },
        {
          "internalType": "uint256",
          "name": "votesForYes",
          "type": "uint256"
        },
        {
          "internalType": "uint256",
          "name": "votesForNo",
          "type": "uint256"
        },
        {
          "internalType": "uint256",
          "name": "startTime",
          "type": "uint256"
        },
        {
          "internalType": "uint256",
          "name": "endTime",
          "type": "uint256"
        },
        {
          "internalType": "uint256",
          "name": "newPriceOfEgg",
          "type": "uint256"
        },
        {
          "internalType": "bool",
          "name": "canceled",
          "type": "bool"
        },
        {
          "internalType": "bool",
          "name": "executed",
          "type": "bool"
        }
      ],
      "stateMutability": "view",
      "type": "function"
    },
    {
      "inputs": [
        {
          "internalType": "uint256",
          "name": "newPriceOfEgg",
          "type": "uint256"
        },
        {
          "internalType": "string",
          "name": "description",
          "type": "string"
        }
      ],
      "name": "proposePriceChange",
      "outputs": [],
      "stateMutability": "nonpayable",
      "type": "function"
    },
    {
      "inputs": [],
      "name": "qurumVotes",
      "outputs": [
        {
          "internalType": "uint256",
          "name": "",
          "type": "uint256"
        }
      ],
      "stateMutability": "pure",
      "type": "function"
    },
    {
      "inputs": [
        {
          "internalType": "bool",
          "name": "support",
          "type": "bool"
        }
      ],
      "name": "vote",
      "outputs": [],
      "stateMutability": "nonpayable",
      "type": "function"
    }
  ],
  "transactionHash": "0x20571b1aca3dfd43740d82ae9da602dd95f528ebd919294507a296d07322ae84",
  "args": [
    "0x62dab06b5BcD3B87BC5547012DD84ba2c4274356"
  ],
  "solcInputHash": "243bcb2753543eccc08154904bcab240",
  "bytecode": "0x6080604052600060019081556004805460ff1916909117905534801561002457600080fd5b50604051610a22380380610a2283398101604081905261004391610068565b600080546001600160a01b0319166001600160a01b0392909216919091179055610098565b60006020828403121561007a57600080fd5b81516001600160a01b038116811461009157600080fd5b9392505050565b61097b806100a76000396000f3fe608060405234801561001057600080fd5b50600436106100cf5760003560e01c8063658ab3071161008c578063b58131b011610066578063b58131b01461027a578063c08cc02d14610281578063cb59205714610289578063cbf39e9c1461029057600080fd5b8063658ab30714610228578063899ed2f51461024c578063a730117e1461026757600080fd5b8063013cf08b146100d45780630b6ce8731461019f578063287830c9146101b4578063373058b8146101df5780634b9f5c98146101e75780634f73ffd8146101fa575b600080fd5b6101446100e2366004610809565b600360208190526000918252604090912080546001820154600283015493830154600484015460058501546006860154600787015460089097015495976001600160a01b03909516969495939492939192909160ff808216916101009004168a565b604080519a8b526001600160a01b0390991660208b0152978901969096526060880194909452608087019290925260a086015260c085015260e084015215156101008301521515610120820152610140015b60405180910390f35b6101b26101ad36600461083b565b6102ac565b005b6000546101c7906001600160a01b031681565b6040516001600160a01b039091168152602001610196565b6101b26104e5565b6101b26101f53660046107e7565b610608565b60015460009081526003602081905260409091206004810154910154115b6040519015158152602001610196565b6001546000908152600360205260409020600401545b604051908152602001610196565b6001546000908152600360208190526040909120015461023e565b61023e6102753660046107b7565b610733565b600261023e565b60015461023e565b600561023e565b6001546000908152600360205260409020600601544210610218565b60056102b733610733565b10156102d6576040516319f8e21160e11b815260040160405180910390fd5b600160045460ff1660018111156102ef576102ef61092f565b14158015610310575060015460009081526003602052604090206006015442105b1561032e5760405163728fdee760e01b815260040160405180910390fd5b600154600090815260036020526040902060060154421015801561036b575060015460009081526003602081905260409091206004810154910154115b15610378576103786104e5565b4260006103888262093a806108e6565b9050600060016000815461039b906108fe565b918290555060408051610140810182528281523360208201529192508101600581526000602080830182905260408084018390526060808501899052608080860189905260a08087018e905260c080880187905260e09788018790528987526003808752968590208951815595890151600180880180546001600160a01b0319166001600160a01b03909316929092179091558986015160028801559389015196860196909655908701516004850155860151600584015592850151600683015592840151600782015561010080850151600890920180546101209096015161ffff1990961692151561ff001916929092179415150293909317909255905490517fd12a4e58dcc2b663b0003a48c6cc95ade3f1f5b2613b85cf8ecf29f431961eb4906104cb90889088906108b7565b60405180910390a250506004805460ff1916905550505050565b6001546000908152600360205260409020600681015442101561051b5760405163728fdee760e01b815260040160405180910390fd5b806004015481600301541080610538575080600401548160030154145b80610547575060028160030154105b156105605760088101805460ff191660011790556105f8565b600054600782015460405163751928a160e01b81526001600160a01b039092169163751928a1916105979160040190815260200190565b600060405180830381600087803b1580156105b157600080fd5b505af11580156105c5573d6000803e3d6000fd5b5050505060078101546040517f9e86064f7684db1b7fc25bf2e6ab55f94fed52914cd0673564de44d70e409fe490600090a25b506004805460ff19166001179055565b6001805460009081526003602052604090209060045460ff1660018111156106325761063261092f565b14156106515760405163cf88c65760e01b815260040160405180910390fd5b60018101546001600160a01b031633141561067f57604051631be83c3560e11b815260040160405180910390fd5b336000908152600260209081526040808320600154845290915290205460ff16156106bd57604051637c9a1cf960e01b815260040160405180910390fd5b80600601544211156106e257604051630fab437760e21b815260040160405180910390fd5b60006106ed33610733565b90508215610714578082600301600082825461070991906108e6565b9091555061072e9050565b8082600401600082825461072891906108e6565b90915550505b505050565b600080546040516370a0823160e01b81526001600160a01b038481166004830152909116906370a082319060240160206040518083038186803b15801561077957600080fd5b505afa15801561078d573d6000803e3d6000fd5b505050506040513d601f19601f820116820180604052508101906107b19190610822565b92915050565b6000602082840312156107c957600080fd5b81356001600160a01b03811681146107e057600080fd5b9392505050565b6000602082840312156107f957600080fd5b813580151581146107e057600080fd5b60006020828403121561081b57600080fd5b5035919050565b60006020828403121561083457600080fd5b5051919050565b60008060006040848603121561085057600080fd5b83359250602084013567ffffffffffffffff8082111561086f57600080fd5b818601915086601f83011261088357600080fd5b81358181111561089257600080fd5b8760208285010111156108a457600080fd5b6020830194508093505050509250925092565b60208152816020820152818360408301376000818301604090810191909152601f909201601f19160101919050565b600082198211156108f9576108f9610919565b500190565b600060001982141561091257610912610919565b5060010190565b634e487b7160e01b600052601160045260246000fd5b634e487b7160e01b600052602160045260246000fdfea264697066735822122061845b733f0618915c28d11e8586d4cb3a8af726a55f89b59651cc904f4e097164736f6c63430008070033",
  "devdoc": {
    "kind": "dev",
    "methods": {},
    "version": 1
  },
  "userdoc": {
    "kind": "user",
    "methods": {},
    "version": 1
  },
  "storageLayout": {
    "storage": [
      {
        "astId": 5827,
        "contract": "contracts/Governance.sol:Governance",
        "label": "cryptoAnts",
        "offset": 0,
        "slot": "0",
        "type": "t_contract(CryptoAnts)5736"
      },
      {
        "astId": 5830,
        "contract": "contracts/Governance.sol:Governance",
        "label": "_proposalCount",
        "offset": 0,
        "slot": "1",
        "type": "t_uint256"
      },
      {
        "astId": 5860,
        "contract": "contracts/Governance.sol:Governance",
        "label": "_hasVoted",
        "offset": 0,
        "slot": "2",
        "type": "t_mapping(t_address,t_mapping(t_uint256,t_bool))"
      },
      {
        "astId": 5865,
        "contract": "contracts/Governance.sol:Governance",
        "label": "proposals",
        "offset": 0,
        "slot": "3",
        "type": "t_mapping(t_uint256,t_struct(Proposal)5851_storage)"
      },
      {
        "astId": 5870,
        "contract": "contracts/Governance.sol:Governance",
        "label": "_proposalState",
        "offset": 0,
        "slot": "4",
        "type": "t_enum(ProposalState)5854"
      }
    ],
    "types": {
      "t_address": {
        "encoding": "inplace",
        "label": "address",
        "numberOfBytes": "20"
      },
      "t_bool": {
        "encoding": "inplace",
        "label": "bool",
        "numberOfBytes": "1"
      },
      "t_contract(CryptoAnts)5736": {
        "encoding": "inplace",
        "label": "contract CryptoAnts",
        "numberOfBytes": "20"
      },
      "t_enum(ProposalState)5854": {
        "encoding": "inplace",
        "label": "enum Governance.ProposalState",
        "numberOfBytes": "1"
      },
      "t_mapping(t_address,t_mapping(t_uint256,t_bool))": {
        "encoding": "mapping",
        "key": "t_address",
        "label": "mapping(address => mapping(uint256 => bool))",
        "numberOfBytes": "32",
        "value": "t_mapping(t_uint256,t_bool)"
      },
      "t_mapping(t_uint256,t_bool)": {
        "encoding": "mapping",
        "key": "t_uint256",
        "label": "mapping(uint256 => bool)",
        "numberOfBytes": "32",
        "value": "t_bool"
      },
      "t_mapping(t_uint256,t_struct(Proposal)5851_storage)": {
        "encoding": "mapping",
        "key": "t_uint256",
        "label": "mapping(uint256 => struct Governance.Proposal)",
        "numberOfBytes": "32",
        "value": "t_struct(Proposal)5851_storage"
      },
      "t_struct(Proposal)5851_storage": {
        "encoding": "inplace",
        "label": "struct Governance.Proposal",
        "members": [
          {
            "astId": 5832,
            "contract": "contracts/Governance.sol:Governance",
            "label": "id",
            "offset": 0,
            "slot": "0",
            "type": "t_uint256"
          },
          {
            "astId": 5834,
            "contract": "contracts/Governance.sol:Governance",
            "label": "proposer",
            "offset": 0,
            "slot": "1",
            "type": "t_address"
          },
          {
            "astId": 5836,
            "contract": "contracts/Governance.sol:Governance",
            "label": "qurum",
            "offset": 0,
            "slot": "2",
            "type": "t_uint256"
          },
          {
            "astId": 5838,
            "contract": "contracts/Governance.sol:Governance",
            "label": "votesForYes",
            "offset": 0,
            "slot": "3",
            "type": "t_uint256"
          },
          {
            "astId": 5840,
            "contract": "contracts/Governance.sol:Governance",
            "label": "votesForNo",
            "offset": 0,
            "slot": "4",
            "type": "t_uint256"
          },
          {
            "astId": 5842,
            "contract": "contracts/Governance.sol:Governance",
            "label": "startTime",
            "offset": 0,
            "slot": "5",
            "type": "t_uint256"
          },
          {
            "astId": 5844,
            "contract": "contracts/Governance.sol:Governance",
            "label": "endTime",
            "offset": 0,
            "slot": "6",
            "type": "t_uint256"
          },
          {
            "astId": 5846,
            "contract": "contracts/Governance.sol:Governance",
            "label": "newPriceOfEgg",
            "offset": 0,
            "slot": "7",
            "type": "t_uint256"
          },
          {
            "astId": 5848,
            "contract": "contracts/Governance.sol:Governance",
            "label": "canceled",
            "offset": 0,
            "slot": "8",
            "type": "t_bool"
          },
          {
            "astId": 5850,
            "contract": "contracts/Governance.sol:Governance",
            "label": "executed",
            "offset": 1,
            "slot": "8",
            "type": "t_bool"
          }
        ],
        "numberOfBytes": "288"
      },
      "t_uint256": {
        "encoding": "inplace",
        "label": "uint256",
        "numberOfBytes": "32"
      }
    }
  }
}